{
  "contractName": "HashStorage",
  "abi": [
    {
      "constant": false,
      "inputs": [
        {
          "name": "_ipfsFileHash",
          "type": "string"
        }
      ],
      "name": "set",
      "outputs": [],
      "payable": false,
      "stateMutability": "nonpayable",
      "type": "function",
      "signature": "0x4ed3885e"
    },
    {
      "constant": true,
      "inputs": [],
      "name": "getNumberOfIpfsFileHash",
      "outputs": [
        {
          "name": "",
          "type": "uint256"
        }
      ],
      "payable": false,
      "stateMutability": "view",
      "type": "function",
      "signature": "0x0321b7ee"
    },
    {
      "constant": true,
      "inputs": [],
      "name": "getLastFileHash",
      "outputs": [
        {
          "name": "",
          "type": "string"
        }
      ],
      "payable": false,
      "stateMutability": "view",
      "type": "function",
      "signature": "0x2caaf546"
    },
    {
      "constant": true,
      "inputs": [
        {
          "name": "_fileHashId",
          "type": "uint256"
        }
      ],
      "name": "getFileHashById",
      "outputs": [
        {
          "name": "txsigner",
          "type": "address"
        },
        {
          "name": "ipfsFileHash",
          "type": "string"
        },
        {
          "name": "hashId",
          "type": "uint256"
        }
      ],
      "payable": false,
      "stateMutability": "view",
      "type": "function",
      "signature": "0x54a8657d"
    }
  ],
  "bytecode": "0x608060405234801561001057600080fd5b50610648806100206000396000f3fe608060405260043610610062576000357c0100000000000000000000000000000000000000000000000000000000900463ffffffff1680630321b7ee146100675780632caaf546146100925780634ed3885e1461012257806354a8657d146101ea575b600080fd5b34801561007357600080fd5b5061007c6102d8565b6040518082815260200191505060405180910390f35b34801561009e57600080fd5b506100a76102e2565b6040518080602001828103825283818151815260200191508051906020019080838360005b838110156100e75780820151818401526020810190506100cc565b50505050905090810190601f1680156101145780820380516001836020036101000a031916815260200191505b509250505060405180910390f35b34801561012e57600080fd5b506101e86004803603602081101561014557600080fd5b810190808035906020019064010000000081111561016257600080fd5b82018360208201111561017457600080fd5b8035906020019184600183028401116401000000008311171561019657600080fd5b91908080601f016020809104026020016040519081016040528093929190818152602001838380828437600081840152601f19601f820116905080830192505050505050509192919290505050610399565b005b3480156101f657600080fd5b506102236004803603602081101561020d57600080fd5b8101908080359060200190929190505050610467565b604051808473ffffffffffffffffffffffffffffffffffffffff1673ffffffffffffffffffffffffffffffffffffffff16815260200180602001838152602001828103825284818151815260200191508051906020019080838360005b8381101561029b578082015181840152602081019050610280565b50505050905090810190601f1680156102c85780820380516001836020036101000a031916815260200191505b5094505050505060405180910390f35b6000600154905090565b606060008060015481526020019081526020016000206002018054600181600116156101000203166002900480601f01602080910402602001604051908101604052809291908181526020018280546001816001161561010002031660029004801561038f5780601f106103645761010080835404028352916020019161038f565b820191906000526020600020905b81548152906001019060200180831161037257829003601f168201915b5050505050905090565b60016000815480929190600101919050555060606040519081016040528060015481526020013373ffffffffffffffffffffffffffffffffffffffff1681526020018281525060008060015481526020019081526020016000206000820151816000015560208201518160010160006101000a81548173ffffffffffffffffffffffffffffffffffffffff021916908373ffffffffffffffffffffffffffffffffffffffff1602179055506040820151816002019080519060200190610460929190610577565b5090505050565b60006060600080600085815260200190815260200160002060010160009054906101000a900473ffffffffffffffffffffffffffffffffffffffff1660008086815260200190815260200160002060020160008087815260200190815260200160002060000154818054600181600116156101000203166002900480601f0160208091040260200160405190810160405280929190818152602001828054600181600116156101000203166002900480156105635780601f1061053857610100808354040283529160200191610563565b820191906000526020600020905b81548152906001019060200180831161054657829003601f168201915b505050505091509250925092509193909250565b828054600181600116156101000203166002900490600052602060002090601f016020900481019282601f106105b857805160ff19168380011785556105e6565b828001600101855582156105e6579182015b828111156105e55782518255916020019190600101906105ca565b5b5090506105f391906105f7565b5090565b61061991905b808211156106155760008160009055506001016105fd565b5090565b9056fea165627a7a72305820a7759fab6f17b8125d3183c1b0c747c55c246f17717f9aaec6ad286b32faac0b0029",
  "source": "pragma solidity >=0.4.21 <0.6.0;\n\ncontract HashStorage {\n\n  // state variables\n  struct HashInfo{\n  uint fileHashId;\n  address filSigner;\n  string ipfsFileHash;\n  }\n\n  // mapping an id(fileHashId) to each HashInfo\n  mapping (uint => HashInfo) hashInfos;\n  // create a counter to increment the fileHashId\n  uint hashCounter;\n\n  // Set ipfs File Hash on the blockchain\n  function set(string memory _ipfsFileHash) public {\n    // increment the hasconter for adding a new hash\n    hashCounter++;\n\n    // store this hash\n    hashInfos[hashCounter] = HashInfo(\n      hashCounter,\n      msg.sender, //We retrieve the adress of the account that signed the transaction\n      _ipfsFileHash\n    );\n  }\n\n  //get the number of hash stored on the blockchain\n  function getNumberOfIpfsFileHash() public view returns (uint) {\n    return hashCounter;\n  }\n\n  //get the last hash that have been stored on the blockchain\n  function getLastFileHash() public view returns (string memory) {\n    return (hashInfos[hashCounter].ipfsFileHash);\n  }\n\n  // Get ipfs File Hash by HashId\n  function getFileHashById(uint _fileHashId) public view returns (address txsigner, string memory ipfsFileHash, uint hashId) {\n    return(\n      hashInfos[_fileHashId].filSigner,\n      hashInfos[_fileHashId].ipfsFileHash,\n      hashInfos[_fileHashId].fileHashId\n      );\n  }\n}\n",
  "sourcePath": "/home/goint/Documents/SMART-FLOW-PROJECT/Smart-Flow-Dev/contracts/HashStorage.sol",
  "compiler": {
    "name": "solc",
    "version": "0.5.0+commit.1d4f565a.Emscripten.clang"
  },
  "schemaVersion": "3.0.6",
  "updatedAt": "2020-02-15T15:16:44.238Z",
  "devdoc": {
    "methods": {}
  },
  "userdoc": {
    "methods": {}
  }
}